{
  "contractName": "IexecOracleAPI",
  "abi": [
    {
      "inputs": [
        {
          "name": "_iexecOracleAddress",
          "type": "address"
        },
        {
          "name": "dappPrice",
          "type": "uint256"
        },
        {
          "name": "dappName",
          "type": "string"
        }
      ],
      "payable": false,
      "stateMutability": "nonpayable",
      "type": "constructor"
    },
    {
      "anonymous": false,
      "inputs": [
        {
          "indexed": false,
          "name": "submitTxHash",
          "type": "bytes32"
        },
        {
          "indexed": true,
          "name": "user",
          "type": "address"
        },
        {
          "indexed": false,
          "name": "stdout",
          "type": "string"
        },
        {
          "indexed": false,
          "name": "uri",
          "type": "string"
        }
      ],
      "name": "IexecSubmitCallback",
      "type": "event"
    },
    {
      "constant": false,
      "inputs": [
        {
          "name": "param",
          "type": "string"
        }
      ],
      "name": "iexecSubmit",
      "outputs": [],
      "payable": true,
      "stateMutability": "payable",
      "type": "function"
    },
    {
      "constant": false,
      "inputs": [
        {
          "name": "submitTxHash",
          "type": "bytes32"
        },
        {
          "name": "user",
          "type": "address"
        },
        {
          "name": "stdout",
          "type": "string"
        },
        {
          "name": "uri",
          "type": "string"
        }
      ],
      "name": "iexecSubmitCallback",
      "outputs": [
        {
          "name": "",
          "type": "bool"
        }
      ],
      "payable": false,
      "stateMutability": "nonpayable",
      "type": "function"
    }
  ],
  "bytecode": "0x6060604052341561000f57600080fd5b60405161061f38038061061f833981016040528080519060200190919080519060200190919080518201919050506000836000806101000a81548173ffffffffffffffffffffffffffffffffffffffff021916908373ffffffffffffffffffffffffffffffffffffffff1602179055506000809054906101000a900473ffffffffffffffffffffffffffffffffffffffff1690508073ffffffffffffffffffffffffffffffffffffffff16635993ef5384846040518363ffffffff167c01000000000000000000000000000000000000000000000000000000000281526004018083815260200180602001828103825283818151815260200191508051906020019080838360005b83811015610132578082015181840152602081019050610117565b50505050905090810190601f16801561015f5780820380516001836020036101000a031916815260200191505b509350505050602060405180830381600087803b151561017e57600080fd5b5af1151561018b57600080fd5b5050506040518051905015156101a057600080fd5b5050505061046c806101b36000396000f30060606040526004361061004c576000357c0100000000000000000000000000000000000000000000000000000000900463ffffffff16806310a9f201146100515780638cd213b914610135575b600080fd5b341561005c57600080fd5b61011b60048080356000191690602001909190803573ffffffffffffffffffffffffffffffffffffffff1690602001909190803590602001908201803590602001908080601f0160208091040260200160405190810160405280939291908181526020018383808284378201915050505050509190803590602001908201803590602001908080601f01602080910402602001604051908101604052809392919081815260200183838082843782019150505050505091905050610187565b604051808215151515815260200191505060405180910390f35b610185600480803590602001908201803590602001908080601f01602080910402602001604051908101604052809392919081815260200183838082843782019150505050505091905050610320565b005b60008060009054906101000a900473ffffffffffffffffffffffffffffffffffffffff1673ffffffffffffffffffffffffffffffffffffffff163373ffffffffffffffffffffffffffffffffffffffff161415156101e457600080fd5b8373ffffffffffffffffffffffffffffffffffffffff167f68d2eaa37ea3e53bbe55f11eb038084f280086b8f4c4552dbca1b5692efeb9138685856040518084600019166000191681526020018060200180602001838103835285818151815260200191508051906020019080838360005b83811015610271578082015181840152602081019050610256565b50505050905090810190601f16801561029e5780820380516001836020036101000a031916815260200191505b50838103825284818151815260200191508051906020019080838360005b838110156102d75780820151818401526020810190506102bc565b50505050905090810190601f1680156103045780820380516001836020036101000a031916815260200191505b509550505050505060405180910390a260019050949350505050565b60008060009054906101000a900473ffffffffffffffffffffffffffffffffffffffff1690508073ffffffffffffffffffffffffffffffffffffffff1663d99a8dc334846040518363ffffffff167c01000000000000000000000000000000000000000000000000000000000281526004018080602001828103825283818151815260200191508051906020019080838360005b838110156103cf5780820151818401526020810190506103b4565b50505050905090810190601f1680156103fc5780820380516001836020036101000a031916815260200191505b50925050506020604051808303818588803b151561041957600080fd5b5af1151561042657600080fd5b5050505060405180519050151561043c57600080fd5b50505600a165627a7a72305820a9ac268ff72db3953506ec82a0f6469d4e17d6a71fee485a857b673d434cd1f20029",
  "source": "pragma solidity ^0.4.18;\n//v1.1.1\nimport \"./IexecOracle.sol\";\nimport './IexecLib.sol';\n\ncontract IexecOracleAPI{\n\n\n    address iexecOracleAddress;\n    event IexecSubmitCallback(bytes32 submitTxHash, address indexed user, string stdout, string uri);\n\n    //constructor\n    function IexecOracleAPI(address _iexecOracleAddress, uint256 dappPrice, string dappName) public {\n        iexecOracleAddress=_iexecOracleAddress;\n        IexecOracle iexecOracle = IexecOracle(iexecOracleAddress);\n        require(iexecOracle.registerDappAndProvider(dappPrice,dappName));\n    }\n\n    function iexecSubmit(string param) payable public {\n        IexecOracle iexecOracle = IexecOracle(iexecOracleAddress);\n        require(iexecOracle.submit.value(msg.value)(param));\n    }\n\n    function iexecSubmitCallback(bytes32 submitTxHash, address user, string stdout, string uri) public returns  (bool){\n        require(msg.sender == iexecOracleAddress);\n        IexecSubmitCallback(submitTxHash,user,stdout,uri);\n        return true;\n    }\n}\n",
  "sourcePath": "iexec-oracle-contract/contracts/IexecOracleAPI.sol",
  "compiler": {
    "name": "solc",
    "version": "0.4.21+commit.dfe3193c.Emscripten.clang"
  },
  "schemaVersion": "2.0.0",
  "updatedAt": "2018-04-24T13:05:49.647Z"
}