{
  "contractName": "IexecOracleEscrow",
  "abi": [
    {
      "constant": true,
      "inputs": [],
      "name": "rlcToken",
      "outputs": [
        {
          "name": "",
          "type": "address"
        }
      ],
      "payable": false,
      "stateMutability": "view",
      "type": "function"
    },
    {
      "constant": true,
      "inputs": [],
      "name": "owner",
      "outputs": [
        {
          "name": "",
          "type": "address"
        }
      ],
      "payable": false,
      "stateMutability": "view",
      "type": "function"
    },
    {
      "constant": true,
      "inputs": [
        {
          "name": "",
          "type": "address"
        }
      ],
      "name": "iexecOracleRegistered",
      "outputs": [
        {
          "name": "",
          "type": "bool"
        }
      ],
      "payable": false,
      "stateMutability": "view",
      "type": "function"
    },
    {
      "constant": false,
      "inputs": [
        {
          "name": "newOwner",
          "type": "address"
        }
      ],
      "name": "transferOwnership",
      "outputs": [],
      "payable": false,
      "stateMutability": "nonpayable",
      "type": "function"
    },
    {
      "inputs": [
        {
          "name": "_tokenAddress",
          "type": "address"
        }
      ],
      "payable": false,
      "stateMutability": "nonpayable",
      "type": "constructor"
    },
    {
      "constant": false,
      "inputs": [
        {
          "name": "target",
          "type": "address"
        },
        {
          "name": "isRegistered",
          "type": "bool"
        }
      ],
      "name": "changeIexecOracleRegistrationStatus",
      "outputs": [],
      "payable": false,
      "stateMutability": "nonpayable",
      "type": "function"
    },
    {
      "constant": false,
      "inputs": [
        {
          "name": "targets",
          "type": "address[]"
        },
        {
          "name": "isRegistered",
          "type": "bool"
        }
      ],
      "name": "changeIexecOracleRegistrationStatuses",
      "outputs": [],
      "payable": false,
      "stateMutability": "nonpayable",
      "type": "function"
    },
    {
      "constant": false,
      "inputs": [
        {
          "name": "dappPrice",
          "type": "uint256"
        }
      ],
      "name": "rlcDeposit",
      "outputs": [
        {
          "name": "",
          "type": "bool"
        }
      ],
      "payable": false,
      "stateMutability": "nonpayable",
      "type": "function"
    },
    {
      "constant": false,
      "inputs": [
        {
          "name": "beneficiary",
          "type": "address"
        },
        {
          "name": "dappPrice",
          "type": "uint256"
        }
      ],
      "name": "rlcPayment",
      "outputs": [
        {
          "name": "",
          "type": "bool"
        }
      ],
      "payable": false,
      "stateMutability": "nonpayable",
      "type": "function"
    },
    {
      "constant": true,
      "inputs": [
        {
          "name": "target",
          "type": "address"
        }
      ],
      "name": "isIexecOracleRegistered",
      "outputs": [
        {
          "name": "",
          "type": "bool"
        }
      ],
      "payable": false,
      "stateMutability": "view",
      "type": "function"
    }
  ],
  "bytecode": "0x6060604052341561000f57600080fd5b604051602080610a9383398101604052808051906020019091905050336000806101000a81548173ffffffffffffffffffffffffffffffffffffffff021916908373ffffffffffffffffffffffffffffffffffffffff16021790555080600160006101000a81548173ffffffffffffffffffffffffffffffffffffffff021916908373ffffffffffffffffffffffffffffffffffffffff160217905550506109d7806100bc6000396000f300606060405260043610610099576000357c0100000000000000000000000000000000000000000000000000000000900463ffffffff168063097c0b0a1461009e57806382ca37f1146101035780638da5cb5b14610158578063b78f1b4d146101ad578063b8ad26da146101fe578063b95803e814610242578063bbc88c5d14610293578063bfd24f40146102ce578063f2fde38b14610328575b600080fd5b34156100a957600080fd5b6101016004808035906020019082018035906020019080806020026020016040519081016040528093929190818152602001838360200280828437820191505050505050919080351515906020019091905050610361565b005b341561010e57600080fd5b6101166103fa565b604051808273ffffffffffffffffffffffffffffffffffffffff1673ffffffffffffffffffffffffffffffffffffffff16815260200191505060405180910390f35b341561016357600080fd5b61016b610420565b604051808273ffffffffffffffffffffffffffffffffffffffff1673ffffffffffffffffffffffffffffffffffffffff16815260200191505060405180910390f35b34156101b857600080fd5b6101e4600480803573ffffffffffffffffffffffffffffffffffffffff16906020019091905050610445565b604051808215151515815260200191505060405180910390f35b341561020957600080fd5b610240600480803573ffffffffffffffffffffffffffffffffffffffff169060200190919080351515906020019091905050610465565b005b341561024d57600080fd5b610279600480803573ffffffffffffffffffffffffffffffffffffffff16906020019091905050610516565b604051808215151515815260200191505060405180910390f35b341561029e57600080fd5b6102b4600480803590602001909190505061056c565b604051808215151515815260200191505060405180910390f35b34156102d957600080fd5b61030e600480803573ffffffffffffffffffffffffffffffffffffffff1690602001909190803590602001909190505061073d565b604051808215151515815260200191505060405180910390f35b341561033357600080fd5b61035f600480803573ffffffffffffffffffffffffffffffffffffffff169060200190919050506108db565b005b60008060009054906101000a900473ffffffffffffffffffffffffffffffffffffffff1673ffffffffffffffffffffffffffffffffffffffff163373ffffffffffffffffffffffffffffffffffffffff1614156103f557600090505b82518110156103f4576103e783828151811015156103d757fe5b9060200190602002015183610465565b80806001019150506103bd565b5b505050565b600160009054906101000a900473ffffffffffffffffffffffffffffffffffffffff1681565b6000809054906101000a900473ffffffffffffffffffffffffffffffffffffffff1681565b60026020528060005260406000206000915054906101000a900460ff1681565b6000809054906101000a900473ffffffffffffffffffffffffffffffffffffffff1673ffffffffffffffffffffffffffffffffffffffff163373ffffffffffffffffffffffffffffffffffffffff1614156105125780600260008473ffffffffffffffffffffffffffffffffffffffff1673ffffffffffffffffffffffffffffffffffffffff16815260200190815260200160002060006101000a81548160ff0219169083151502179055505b5050565b6000600260008373ffffffffffffffffffffffffffffffffffffffff1673ffffffffffffffffffffffffffffffffffffffff16815260200190815260200160002060009054906101000a900460ff169050919050565b6000600260003373ffffffffffffffffffffffffffffffffffffffff1673ffffffffffffffffffffffffffffffffffffffff16815260200190815260200160002060009054906101000a900460ff168061061257506000809054906101000a900473ffffffffffffffffffffffffffffffffffffffff1673ffffffffffffffffffffffffffffffffffffffff163373ffffffffffffffffffffffffffffffffffffffff16145b151561061a57fe5b600160009054906101000a900473ffffffffffffffffffffffffffffffffffffffff1673ffffffffffffffffffffffffffffffffffffffff166323b872dd3230856040518463ffffffff167c0100000000000000000000000000000000000000000000000000000000028152600401808473ffffffffffffffffffffffffffffffffffffffff1673ffffffffffffffffffffffffffffffffffffffff1681526020018373ffffffffffffffffffffffffffffffffffffffff1673ffffffffffffffffffffffffffffffffffffffff1681526020018281526020019350505050602060405180830381600087803b151561071257600080fd5b5af1151561071f57600080fd5b50505060405180519050151561073457600080fd5b60019050919050565b6000600260003373ffffffffffffffffffffffffffffffffffffffff1673ffffffffffffffffffffffffffffffffffffffff16815260200190815260200160002060009054906101000a900460ff16806107e357506000809054906101000a900473ffffffffffffffffffffffffffffffffffffffff1673ffffffffffffffffffffffffffffffffffffffff163373ffffffffffffffffffffffffffffffffffffffff16145b15156107eb57fe5b600160009054906101000a900473ffffffffffffffffffffffffffffffffffffffff1673ffffffffffffffffffffffffffffffffffffffff1663a9059cbb84846040518363ffffffff167c0100000000000000000000000000000000000000000000000000000000028152600401808373ffffffffffffffffffffffffffffffffffffffff1673ffffffffffffffffffffffffffffffffffffffff16815260200182815260200192505050602060405180830381600087803b15156108af57600080fd5b5af115156108bc57600080fd5b5050506040518051905015156108d157600080fd5b6001905092915050565b6000809054906101000a900473ffffffffffffffffffffffffffffffffffffffff1673ffffffffffffffffffffffffffffffffffffffff163373ffffffffffffffffffffffffffffffffffffffff1614156109a857600073ffffffffffffffffffffffffffffffffffffffff168173ffffffffffffffffffffffffffffffffffffffff161415156109a757806000806101000a81548173ffffffffffffffffffffffffffffffffffffffff021916908373ffffffffffffffffffffffffffffffffffffffff1602179055505b5b505600a165627a7a72305820d86e93d362d0361b973d455b9b4b4fcb50e8651d934f5f6bc273ce119c97c6d90029",
  "source": "pragma solidity ^0.4.18;\n//v1.1.1\nimport \"rlc-faucet-contract/contracts/RLC.sol\";\nimport \"rlc-faucet-contract/contracts/Ownable.sol\";\n\n\ncontract IexecOracleEscrow is Ownable {\n\n    RLC public rlcToken;\n\n    mapping(address=>bool) public iexecOracleRegistered;\n\n    modifier onlyOwnerOrOracleRegistered(){\n        assert( iexecOracleRegistered[msg.sender] ||  msg.sender == owner );\n        _;\n    }\n\n    //constructor\n    function IexecOracleEscrow(address _tokenAddress) public {\n        rlcToken = RLC(_tokenAddress);\n    }\n\n    function changeIexecOracleRegistrationStatus(address target, bool isRegistered) public onlyOwner {\n        iexecOracleRegistered[target] = isRegistered;\n    }\n\n    function changeIexecOracleRegistrationStatuses(address[] targets, bool isRegistered) public onlyOwner {\n        for (uint i = 0; i < targets.length; i++) {\n            changeIexecOracleRegistrationStatus(targets[i], isRegistered);\n        }\n    }\n\n    function rlcDeposit(uint256 dappPrice) public onlyOwnerOrOracleRegistered returns (bool){\n        require(rlcToken.transferFrom(tx.origin,this,dappPrice));\n        return true;\n    }\n\n    function rlcPayment(address beneficiary ,uint256 dappPrice) public onlyOwnerOrOracleRegistered returns (bool){\n        require(rlcToken.transfer(beneficiary,dappPrice));\n        return true;\n    }\n\n    function isIexecOracleRegistered(address target) constant public returns (bool){\n      return iexecOracleRegistered[target];\n    }\n\n}\n",
  "sourcePath": "iexec-oracle-contract/contracts/IexecOracleEscrow.sol",
  "compiler": {
    "name": "solc",
    "version": "0.4.21+commit.dfe3193c.Emscripten.clang"
  },
  "schemaVersion": "2.0.0",
  "updatedAt": "2018-04-24T13:05:49.648Z"
}